{
  "address": "0xFb0E70489235c76A47A3584FA7673E7e211a1F39",
  "abi": [
    {
      "anonymous": false,
      "inputs": [
        {
          "indexed": true,
          "internalType": "uint256",
          "name": "topicId",
          "type": "uint256"
        },
        {
          "indexed": false,
          "internalType": "uint32[]",
          "name": "counts",
          "type": "uint32[]"
        },
        {
          "indexed": false,
          "internalType": "string",
          "name": "proof",
          "type": "string"
        }
      ],
      "name": "AggregateSealed",
      "type": "event"
    },
    {
      "anonymous": false,
      "inputs": [
        {
          "indexed": true,
          "internalType": "uint256",
          "name": "topicId",
          "type": "uint256"
        },
        {
          "indexed": true,
          "internalType": "address",
          "name": "voter",
          "type": "address"
        }
      ],
      "name": "CipherPushed",
      "type": "event"
    },
    {
      "anonymous": false,
      "inputs": [
        {
          "indexed": true,
          "internalType": "uint256",
          "name": "topicId",
          "type": "uint256"
        },
        {
          "indexed": true,
          "internalType": "address",
          "name": "owner",
          "type": "address"
        },
        {
          "indexed": false,
          "internalType": "string",
          "name": "name",
          "type": "string"
        },
        {
          "indexed": false,
          "internalType": "uint64",
          "name": "openAt",
          "type": "uint64"
        },
        {
          "indexed": false,
          "internalType": "uint64",
          "name": "closeAt",
          "type": "uint64"
        }
      ],
      "name": "TopicLaunched",
      "type": "event"
    },
    {
      "inputs": [
        {
          "internalType": "uint256",
          "name": "topicId",
          "type": "uint256"
        }
      ],
      "name": "aggregationOf",
      "outputs": [
        {
          "components": [
            {
              "internalType": "uint256",
              "name": "topicId",
              "type": "uint256"
            },
            {
              "internalType": "uint32[]",
              "name": "counts",
              "type": "uint32[]"
            },
            {
              "internalType": "string",
              "name": "proof",
              "type": "string"
            },
            {
              "internalType": "uint64",
              "name": "ts",
              "type": "uint64"
            }
          ],
          "internalType": "struct AuroraVoteHub.PublishInfo",
          "name": "",
          "type": "tuple"
        }
      ],
      "stateMutability": "view",
      "type": "function"
    },
    {
      "inputs": [],
      "name": "countTopics",
      "outputs": [
        {
          "internalType": "uint256",
          "name": "",
          "type": "uint256"
        }
      ],
      "stateMutability": "view",
      "type": "function"
    },
    {
      "inputs": [
        {
          "internalType": "uint256",
          "name": "topicId",
          "type": "uint256"
        }
      ],
      "name": "encryptedAggregateOf",
      "outputs": [
        {
          "internalType": "euint32[]",
          "name": "",
          "type": "bytes32[]"
        }
      ],
      "stateMutability": "view",
      "type": "function"
    },
    {
      "inputs": [
        {
          "internalType": "uint256",
          "name": "topicId",
          "type": "uint256"
        }
      ],
      "name": "fetchTopic",
      "outputs": [
        {
          "internalType": "string",
          "name": "name",
          "type": "string"
        },
        {
          "internalType": "string",
          "name": "details",
          "type": "string"
        },
        {
          "internalType": "string[]",
          "name": "options",
          "type": "string[]"
        },
        {
          "internalType": "uint64",
          "name": "openAt",
          "type": "uint64"
        },
        {
          "internalType": "uint64",
          "name": "closeAt",
          "type": "uint64"
        },
        {
          "internalType": "bool",
          "name": "published",
          "type": "bool"
        },
        {
          "internalType": "address",
          "name": "owner",
          "type": "address"
        }
      ],
      "stateMutability": "view",
      "type": "function"
    },
    {
      "inputs": [
        {
          "internalType": "string",
          "name": "name",
          "type": "string"
        },
        {
          "internalType": "string",
          "name": "details",
          "type": "string"
        },
        {
          "internalType": "string[]",
          "name": "options",
          "type": "string[]"
        },
        {
          "internalType": "uint64",
          "name": "openAt",
          "type": "uint64"
        },
        {
          "internalType": "uint64",
          "name": "closeAt",
          "type": "uint64"
        },
        {
          "internalType": "uint32",
          "name": "maxPer",
          "type": "uint32"
        }
      ],
      "name": "launchTopic",
      "outputs": [
        {
          "internalType": "uint256",
          "name": "topicId",
          "type": "uint256"
        }
      ],
      "stateMutability": "nonpayable",
      "type": "function"
    },
    {
      "inputs": [
        {
          "internalType": "uint256",
          "name": "topicId",
          "type": "uint256"
        }
      ],
      "name": "maxQuotaPerAddress",
      "outputs": [
        {
          "internalType": "uint32",
          "name": "",
          "type": "uint32"
        }
      ],
      "stateMutability": "view",
      "type": "function"
    },
    {
      "inputs": [],
      "name": "protocolId",
      "outputs": [
        {
          "internalType": "uint256",
          "name": "",
          "type": "uint256"
        }
      ],
      "stateMutability": "pure",
      "type": "function"
    },
    {
      "inputs": [
        {
          "internalType": "uint256",
          "name": "topicId",
          "type": "uint256"
        },
        {
          "internalType": "externalEuint32",
          "name": "input",
          "type": "bytes32"
        },
        {
          "internalType": "bytes",
          "name": "proof",
          "type": "bytes"
        }
      ],
      "name": "pushCipherIndex",
      "outputs": [],
      "stateMutability": "nonpayable",
      "type": "function"
    },
    {
      "inputs": [
        {
          "internalType": "uint256",
          "name": "topicId",
          "type": "uint256"
        },
        {
          "internalType": "externalEuint32[]",
          "name": "onehot",
          "type": "bytes32[]"
        },
        {
          "internalType": "bytes",
          "name": "proof",
          "type": "bytes"
        }
      ],
      "name": "pushCipherOneHot",
      "outputs": [],
      "stateMutability": "nonpayable",
      "type": "function"
    },
    {
      "inputs": [
        {
          "internalType": "uint256",
          "name": "topicId",
          "type": "uint256"
        },
        {
          "internalType": "uint32[]",
          "name": "counts",
          "type": "uint32[]"
        },
        {
          "internalType": "string",
          "name": "proof",
          "type": "string"
        }
      ],
      "name": "sealAggregation",
      "outputs": [],
      "stateMutability": "nonpayable",
      "type": "function"
    },
    {
      "inputs": [
        {
          "internalType": "uint256",
          "name": "topicId",
          "type": "uint256"
        }
      ],
      "name": "topicStage",
      "outputs": [
        {
          "internalType": "uint8",
          "name": "",
          "type": "uint8"
        }
      ],
      "stateMutability": "view",
      "type": "function"
    },
    {
      "inputs": [
        {
          "internalType": "address",
          "name": "user",
          "type": "address"
        },
        {
          "internalType": "uint256",
          "name": "topicId",
          "type": "uint256"
        }
      ],
      "name": "usedQuotaBy",
      "outputs": [
        {
          "internalType": "uint32",
          "name": "",
          "type": "uint32"
        }
      ],
      "stateMutability": "view",
      "type": "function"
    }
  ],
  "transactionHash": "0xdc12beeb2b30e5cce989ef8cca44dafc9d0770a0b142639e1bad32030f7c4ad8",
  "args": [],
  "numDeployments": 1,
  "solcInputHash": "e495a75c443c9e75df11a7f8fdbdce6d",
  "bytecode": "0x608060405234801561000f575f5ffd5b5061018a6100ae604080516080810182525f808252602082018190529181018290526060810191909152506040805160808101825273687820221192c5b662b25367f70076a37bc79b6c815273848b0066793bcc60346da1f49049357399b8d595602082015273a02cda4ca3a71d7c46997716f4283aa851c2881291810191909152731364cbbf2cdf5032c47d8226a6f6fbd2afcdacac606082015290565b80517f9e7b61f58c47dc699ac88507c4f5bb9f121c03808c5676a8078fe583e464970080546001600160a01b03199081166001600160a01b039384161790915560208301517f9e7b61f58c47dc699ac88507c4f5bb9f121c03808c5676a8078fe583e46497018054831691841691909117905560408301517f9e7b61f58c47dc699ac88507c4f5bb9f121c03808c5676a8078fe583e46497028054831691841691909117905560608301517f9e7b61f58c47dc699ac88507c4f5bb9f121c03808c5676a8078fe583e46497038054909216921691909117905550565b61226b806101975f395ff3fe608060405234801561000f575f5ffd5b50600436106100cf575f3560e01c806396bce0ce1161007d578063d907fb4511610058578063d907fb45146101d7578063da1f12ab146101fc578063dd25df6714610204575f5ffd5b806396bce0ce1461017c578063aac070c9146101a4578063b7def446146101b7575f5ffd5b80636709ad97116100ad5780636709ad971461011157806379800d27146101365780638b0b197d1461015c575f5ffd5b80630733ceb8146100d35780632785feed146100e957806335ac1e38146100fe575b5f5ffd5b5f545b6040519081526020015b60405180910390f35b6100fc6100f7366004611a5b565b610217565b005b6100fc61010c366004611ad4565b6104d7565b61012461011f366004611b23565b610782565b60405160ff90911681526020016100e0565b610149610144366004611b23565b610859565b6040516100e09796959493929190611b68565b61016f61016a366004611b23565b610b11565b6040516100e09190611c31565b61018f61018a366004611c73565b610c18565b60405163ffffffff90911681526020016100e0565b6100d66101b2366004611d88565b610c47565b6101ca6101c5366004611b23565b610e7d565b6040516100e09190611eda565b61018f6101e5366004611b23565b5f9081526006602052604090205463ffffffff1690565b6127116100d6565b6100fc610212366004611a5b565b611055565b5f858152600260205260409020805486919061023290611f76565b90505f036102775760405162461bcd60e51b815260206004820152600d60248201526c746f706963206d697373696e6760981b60448201526064015b60405180910390fd5b5f8681526002602052604090206003810154600160401b900467ffffffffffffffff1642116102e85760405162461bcd60e51b815260206004820152600a60248201527f6e6f7420636c6f73656400000000000000000000000000000000000000000000604482015260640161026e565b6004810154600160a01b900460ff16156103445760405162461bcd60e51b815260206004820152600960248201527f7075626c69736865640000000000000000000000000000000000000000000000604482015260640161026e565b6002810154851461037d5760405162461bcd60e51b81526020600482015260036024820152623632b760e91b604482015260640161026e565b60405180608001604052808881526020018787808060200260200160405190810160405280939291908181526020018383602002808284375f92019190915250505090825250604080516020601f8801819004810282018101909252868152918101919087908790819084018382808284375f92018290525093855250505067ffffffffffffffff4216602092830152898152600882526040902082518155828201518051919261043692600185019290910190611873565b506040820151600282019061044b9082611ff4565b50606091909101516003909101805467ffffffffffffffff90921667ffffffffffffffff1990921691909117905560048101805460ff60a01b1916600160a01b17905560405187907f1c89ca1da5e227379298795cc9afb8ffec37a50d6ea298ddb2a7ad38dae9ef2c906104c69089908990899089906120af565b60405180910390a250505050505050565b5f84815260026020526040902080548591906104f290611f76565b90505f036105325760405162461bcd60e51b815260206004820152600d60248201526c746f706963206d697373696e6760981b604482015260640161026e565b5f858152600260205260409020600381015467ffffffffffffffff16421080159061057257506003810154600160401b900467ffffffffffffffff164211155b6105a75760405162461bcd60e51b815260206004820152600660248201526577696e646f7760d01b604482015260640161026e565b5f86815260056020908152604080832033845282528083205489845260069092529091205463ffffffff9182169116811061060c5760405162461bcd60e51b815260206004820152600560248201526471756f746160d81b604482015260640161026e565b610617816001612135565b5f8881526005602090815260408083203384528252808320805463ffffffff191663ffffffff95909516949094179093558251601f880182900482028101820190935286835290916106859189919089908990819084018382808284375f920191909152506114b892505050565b9050610690816114cc565b5061069b81336114db565b506001805f8282546106ad9190612151565b9091555050600180546040805160808101825282815260208082018d815282840187815233606085018181525f88815260048652878120965187559351868a0155915160028601559051600394850180547fffffffffffffffffffffffff0000000000000000000000000000000000000000166001600160a01b039092169190911790558e82529282528381208054968701815581529081209094018390559051919290918b917f74ceb201e9341d16f4d07d6f75f9f4e3c408d2ce726363e9c3e65d197391b11a91a3505050505050505050565b5f818152600260205260408120805483919061079d90611f76565b90505f036107dd5760405162461bcd60e51b815260206004820152600d60248201526c746f706963206d697373696e6760981b604482015260640161026e565b5f8381526002602052604090206004810154600160a01b900460ff1615610808576003925050610853565b600381015467ffffffffffffffff16421015610827575f925050610853565b6003810154600160401b900467ffffffffffffffff16421161084d576001925050610853565b60029250505b50919050565b60608060605f5f5f5f8760025f8281526020019081526020015f205f01805461088190611f76565b90505f036108c15760405162461bcd60e51b815260206004820152600d60248201526c746f706963206d697373696e6760981b604482015260640161026e565b5f8981526002602081905260409091206003810154600482015482549293849360018501939185019267ffffffffffffffff80841693600160401b9004169160ff600160a01b830416916001600160a01b031690879061092090611f76565b80601f016020809104026020016040519081016040528092919081815260200182805461094c90611f76565b80156109975780601f1061096e57610100808354040283529160200191610997565b820191905f5260205f20905b81548152906001019060200180831161097a57829003601f168201915b505050505096508580546109aa90611f76565b80601f01602080910402602001604051908101604052809291908181526020018280546109d690611f76565b8015610a215780601f106109f857610100808354040283529160200191610a21565b820191905f5260205f20905b815481529060010190602001808311610a0457829003601f168201915b5050505050955084805480602002602001604051908101604052809291908181526020015f905b82821015610af0578382905f5260205f20018054610a6590611f76565b80601f0160208091040260200160405190810160405280929190818152602001828054610a9190611f76565b8015610adc5780601f10610ab357610100808354040283529160200191610adc565b820191905f5260205f20905b815481529060010190602001808311610abf57829003601f168201915b505050505081526020019060010190610a48565b50505050945098509850985098509850985098505050919395979092949650565b5f81815260026020526040902080546060918391610b2e90611f76565b90505f03610b6e5760405162461bcd60e51b815260206004820152600d60248201526c746f706963206d697373696e6760981b604482015260640161026e565b5f838152600760205260408120805490919067ffffffffffffffff811115610b9857610b98611ca8565b604051908082528060200260200182016040528015610bc1578160200160208202803683370190505b5090505f5b8254811015610c0f57828181548110610be157610be1612164565b905f5260205f200154828281518110610bfc57610bfc612164565b6020908102919091010152600101610bc6565b50949350505050565b5f8181526005602090815260408083206001600160a01b038616845290915290205463ffffffff165b92915050565b5f5f875111610c815760405162461bcd60e51b815260040161026e906020808252600490820152636e616d6560e01b604082015260600190565b600285511015610cd35760405162461bcd60e51b815260206004820152600760248201527f6f7074696f6e7300000000000000000000000000000000000000000000000000604482015260640161026e565b8367ffffffffffffffff168367ffffffffffffffff16118015610cff5750428367ffffffffffffffff16115b610d345760405162461bcd60e51b815260040161026e9060208082526004908201526374696d6560e01b604082015260600190565b60015f5f828254610d459190612151565b90915550505f80548082526002602052604090912090915080610d688982611ff4565b5060018101610d778882611ff4565b508551610d8d906002830190602089019061191b565b5060038101805467ffffffffffffffff868116600160401b026fffffffffffffffffffffffffffffffff199092169088161717905560048101805460ff60a01b1933167fffffffffffffffffffffff00000000000000000000000000000000000000000090911617905563ffffffff831615610e095782610e0c565b60015b5f8381526006602052604090819020805463ffffffff191663ffffffff939093169290921790915551339083907fadc85aae483772afb7ddb44b5bb368e647044db9e30ebba76d4690a957fd917e90610e6a908c908a908a90612178565b60405180910390a3509695505050505050565b610eb060405180608001604052805f815260200160608152602001606081526020015f67ffffffffffffffff1681525090565b5f8281526002602052604090208054839190610ecb90611f76565b90505f03610f0b5760405162461bcd60e51b815260206004820152600d60248201526c746f706963206d697373696e6760981b604482015260640161026e565b5f8381526008602090815260409182902082516080810184528154815260018201805485518186028101860190965280865291949293858101939290830182828015610f9f57602002820191905f5260205f20905f905b82829054906101000a900463ffffffff1663ffffffff1681526020019060040190602082600301049283019260010382029150808411610f625790505b50505050508152602001600282018054610fb890611f76565b80601f0160208091040260200160405190810160405280929190818152602001828054610fe490611f76565b801561102f5780601f106110065761010080835404028352916020019161102f565b820191905f5260205f20905b81548152906001019060200180831161101257829003601f168201915b50505091835250506003919091015467ffffffffffffffff166020909101529392505050565b5f858152600260205260409020805486919061107090611f76565b90505f036110b05760405162461bcd60e51b815260206004820152600d60248201526c746f706963206d697373696e6760981b604482015260640161026e565b5f868152600260205260409020600381015467ffffffffffffffff1642108015906110f057506003810154600160401b900467ffffffffffffffff164211155b6111255760405162461bcd60e51b815260206004820152600660248201526577696e646f7760d01b604482015260640161026e565b6002810154851461115e5760405162461bcd60e51b81526020600482015260036024820152623632b760e91b604482015260640161026e565b5f8781526005602090815260408083203384528252808320548a845260069092529091205463ffffffff918216911681106111c35760405162461bcd60e51b815260206004820152600560248201526471756f746160d81b604482015260640161026e565b6111ce816001612135565b5f8981526005602090815260408083203384529091528120805463ffffffff191663ffffffff93909316929092179091558667ffffffffffffffff81111561121857611218611ca8565b604051908082528060200260200182016040528015611241578160200160208202803683370190505b5090505f5b878110156112ca576112a589898381811061126357611263612164565b9050602002013588888080601f0160208091040260200160405190810160405280939291908181526020018383808284375f920191909152506114b892505050565b8282815181106112b7576112b7612164565b6020908102919091010152600101611246565b505f898152600760205260408120805490910361132f575f5b825181101561132957818382815181106112ff576112ff612164565b6020908102919091018101518254600181810185555f9485529290932090920191909155016112e3565b506113ef565b81518154146113805760405162461bcd60e51b815260206004820152600760248201527f6167672d6c656e00000000000000000000000000000000000000000000000000604482015260640161026e565b5f5b82518110156113ed576113c88282815481106113a0576113a0612164565b905f5260205f2001548483815181106113bb576113bb612164565b60200260200101516114ed565b8282815481106113da576113da612164565b5f91825260209091200155600101611382565b505b5f5b825181101561147f5761141d82828154811061140f5761140f612164565b905f5260205f2001546114cc565b5061145182828154811061143357611433612164565b5f9182526020909120015460048701546001600160a01b03166114db565b5061147682828154811061146757611467612164565b905f5260205f200154336114db565b506001016113f1565b5060405133908b907f74ceb201e9341d16f4d07d6f75f9f4e3c408d2ce726363e9c3e65d197391b11a905f90a350505050505050505050565b5f6114c58383600461151b565b9392505050565b5f6114d7823061163b565b5090565b5f6114e6838361163b565b5090919050565b5f826114ff576114fc5f6116c4565b92505b816115105761150d5f6116c4565b91505b6114c583835f6116d6565b7f9e7b61f58c47dc699ac88507c4f5bb9f121c03808c5676a8078fe583e46497015460405163196d0b9b60e01b81525f917f9e7b61f58c47dc699ac88507c4f5bb9f121c03808c5676a8078fe583e4649700916001600160a01b039091169063196d0b9b906115949088903390899089906004016121cb565b6020604051808303815f875af11580156115b0573d5f5f3e3d5ffd5b505050506040513d601f19601f820116820180604052508101906115d4919061220a565b8154604051630f8e573b60e21b8152600481018390523360248201529193506001600160a01b031690633e395cec906044015f604051808303815f87803b15801561161d575f5ffd5b505af115801561162f573d5f5f3e3d5ffd5b50505050509392505050565b5f7f9e7b61f58c47dc699ac88507c4f5bb9f121c03808c5676a8078fe583e46497008054604051635ca4b5b160e11b8152600481018690526001600160a01b03858116602483015292935091169063b9496b62906044015f604051808303815f87803b1580156116a9575f5ffd5b505af11580156116bb573d5f5f3e3d5ffd5b50505050505050565b5f610c418263ffffffff1660046117b6565b5f5f82156116e95750600160f81b6116ec565b505f5b5f7f9e7b61f58c47dc699ac88507c4f5bb9f121c03808c5676a8078fe583e4649700600181015460405163022f65e760e31b815260048101899052602481018890527fff00000000000000000000000000000000000000000000000000000000000000851660448201529192506001600160a01b03169063117b2f38906064016020604051808303815f875af1158015611788573d5f5f3e3d5ffd5b505050506040513d601f19601f820116820180604052508101906117ac919061220a565b9695505050505050565b7f9e7b61f58c47dc699ac88507c4f5bb9f121c03808c5676a8078fe583e464970154604051639cd07acb60e01b81525f917f9e7b61f58c47dc699ac88507c4f5bb9f121c03808c5676a8078fe583e4649700916001600160a01b0390911690639cd07acb9061182b9087908790600401612221565b6020604051808303815f875af1158015611847573d5f5f3e3d5ffd5b505050506040513d601f19601f8201168201806040525081019061186b919061220a565b949350505050565b828054828255905f5260205f209060070160089004810192821561190f579160200282015f5b838211156118dd57835183826101000a81548163ffffffff021916908363ffffffff1602179055509260200192600401602081600301049283019260010302611899565b801561190d5782816101000a81549063ffffffff02191690556004016020816003010492830192600103026118dd565b505b506114d792915061196b565b828054828255905f5260205f2090810192821561195f579160200282015b8281111561195f578251829061194f9082611ff4565b5091602001919060010190611939565b506114d792915061197f565b5b808211156114d7575f815560010161196c565b808211156114d7575f611992828261199b565b5060010161197f565b5080546119a790611f76565b5f825580601f106119b6575050565b601f0160209004905f5260205f20908101906119d2919061196b565b50565b5f5f83601f8401126119e5575f5ffd5b50813567ffffffffffffffff8111156119fc575f5ffd5b6020830191508360208260051b8501011115611a16575f5ffd5b9250929050565b5f5f83601f840112611a2d575f5ffd5b50813567ffffffffffffffff811115611a44575f5ffd5b602083019150836020828501011115611a16575f5ffd5b5f5f5f5f5f60608688031215611a6f575f5ffd5b85359450602086013567ffffffffffffffff811115611a8c575f5ffd5b611a98888289016119d5565b909550935050604086013567ffffffffffffffff811115611ab7575f5ffd5b611ac388828901611a1d565b969995985093965092949392505050565b5f5f5f5f60608587031215611ae7575f5ffd5b8435935060208501359250604085013567ffffffffffffffff811115611b0b575f5ffd5b611b1787828801611a1d565b95989497509550505050565b5f60208284031215611b33575f5ffd5b5035919050565b5f81518084528060208401602086015e5f602082860101526020601f19601f83011685010191505092915050565b60e081525f611b7a60e083018a611b3a565b8281036020840152611b8c818a611b3a565b9050828103604084015280885180835260208301915060208160051b84010160208b015f5b83811015611be357601f19868403018552611bcd838351611b3a565b6020958601959093509190910190600101611bb1565b505067ffffffffffffffff8a1660608701529350611c0092505050565b67ffffffffffffffff94909416608082015291151560a08301526001600160a01b031660c090910152949350505050565b602080825282518282018190525f918401906040840190835b81811015611c68578351835260209384019390920191600101611c4a565b509095945050505050565b5f5f60408385031215611c84575f5ffd5b82356001600160a01b0381168114611c9a575f5ffd5b946020939093013593505050565b634e487b7160e01b5f52604160045260245ffd5b604051601f8201601f1916810167ffffffffffffffff81118282101715611ce557611ce5611ca8565b604052919050565b5f82601f830112611cfc575f5ffd5b813567ffffffffffffffff811115611d1657611d16611ca8565b611d29601f8201601f1916602001611cbc565b818152846020838601011115611d3d575f5ffd5b816020850160208301375f918101602001919091529392505050565b803567ffffffffffffffff81168114611d70575f5ffd5b919050565b803563ffffffff81168114611d70575f5ffd5b5f5f5f5f5f5f60c08789031215611d9d575f5ffd5b863567ffffffffffffffff811115611db3575f5ffd5b611dbf89828a01611ced565b965050602087013567ffffffffffffffff811115611ddb575f5ffd5b611de789828a01611ced565b955050604087013567ffffffffffffffff811115611e03575f5ffd5b8701601f81018913611e13575f5ffd5b803567ffffffffffffffff811115611e2d57611e2d611ca8565b8060051b611e3d60208201611cbc565b9182526020818401810192908101908c841115611e58575f5ffd5b6020850192505b83831015611e9e57823567ffffffffffffffff811115611e7d575f5ffd5b611e8c8e602083890101611ced565b83525060209283019290910190611e5f565b8098505050505050611eb260608801611d59565b9250611ec060808801611d59565b9150611ece60a08801611d75565b90509295509295509295565b60208082528251828201528281015160806040840152805160a084018190525f929190910190829060c08501905b80831015611f315763ffffffff8451168252602082019150602084019350600183019250611f08565b506040860151858203601f190160608701529250611f4f8184611b3a565b925050506060840151611f6e608085018267ffffffffffffffff169052565b509392505050565b600181811c90821680611f8a57607f821691505b60208210810361085357634e487b7160e01b5f52602260045260245ffd5b601f821115611fef57805f5260205f20601f840160051c81016020851015611fcd5750805b601f840160051c820191505b81811015611fec575f8155600101611fd9565b50505b505050565b815167ffffffffffffffff81111561200e5761200e611ca8565b6120228161201c8454611f76565b84611fa8565b6020601f821160018114612054575f831561203d5750848201515b5f19600385901b1c1916600184901b178455611fec565b5f84815260208120601f198516915b828110156120835787850151825560209485019460019092019101612063565b50848210156120a057868401515f19600387901b60f8161c191681555b50505050600190811b01905550565b604080825281018490525f8560608301825b878110156120ec5763ffffffff6120d784611d75565b168252602092830192909101906001016120c1565b508381036020850152848152848660208301375f602086830101526020601f19601f8701168201019250505095945050505050565b634e487b7160e01b5f52601160045260245ffd5b63ffffffff8181168382160190811115610c4157610c41612121565b80820180821115610c4157610c41612121565b634e487b7160e01b5f52603260045260245ffd5b606081525f61218a6060830186611b3a565b67ffffffffffffffff94851660208401529290931660409091015292915050565b605481106121c757634e487b7160e01b5f52602160045260245ffd5b9052565b8481526001600160a01b0384166020820152608060408201525f6121f26080830185611b3a565b905061220160608301846121ab565b95945050505050565b5f6020828403121561221a575f5ffd5b5051919050565b828152604081016114c560208301846121ab56fea2646970667358221220c47dbb6462af27f5e71749fa020245ecee9df08d270b75bf7f7d138fb208168464736f6c634300081b0033",
  "devdoc": {
    "kind": "dev",
    "methods": {},
    "title": "AuroraVoteHub  FHEVM ",
    "version": 1
  },
  "userdoc": {
    "kind": "user",
    "methods": {},
    "version": 1
  },
  "storageLayout": {
    "storage": [
      {
        "astId": 39101,
        "contract": "contracts/PrivacyVoteHub.sol:AuroraVoteHub",
        "label": "_topicSeq",
        "offset": 0,
        "slot": "0",
        "type": "t_uint256"
      },
      {
        "astId": 39103,
        "contract": "contracts/PrivacyVoteHub.sol:AuroraVoteHub",
        "label": "_ballotSeq",
        "offset": 0,
        "slot": "1",
        "type": "t_uint256"
      },
      {
        "astId": 39108,
        "contract": "contracts/PrivacyVoteHub.sol:AuroraVoteHub",
        "label": "_topics",
        "offset": 0,
        "slot": "2",
        "type": "t_mapping(t_uint256,t_struct(Topic)39052_storage)"
      },
      {
        "astId": 39113,
        "contract": "contracts/PrivacyVoteHub.sol:AuroraVoteHub",
        "label": "_topicBallots",
        "offset": 0,
        "slot": "3",
        "type": "t_mapping(t_uint256,t_array(t_uint256)dyn_storage)"
      },
      {
        "astId": 39118,
        "contract": "contracts/PrivacyVoteHub.sol:AuroraVoteHub",
        "label": "_ballots",
        "offset": 0,
        "slot": "4",
        "type": "t_mapping(t_uint256,t_struct(CipherBallot)39062_storage)"
      },
      {
        "astId": 39124,
        "contract": "contracts/PrivacyVoteHub.sol:AuroraVoteHub",
        "label": "_votedCount",
        "offset": 0,
        "slot": "5",
        "type": "t_mapping(t_uint256,t_mapping(t_address,t_uint32))"
      },
      {
        "astId": 39128,
        "contract": "contracts/PrivacyVoteHub.sol:AuroraVoteHub",
        "label": "_maxPerAddress",
        "offset": 0,
        "slot": "6",
        "type": "t_mapping(t_uint256,t_uint32)"
      },
      {
        "astId": 39134,
        "contract": "contracts/PrivacyVoteHub.sol:AuroraVoteHub",
        "label": "_encryptedAggregates",
        "offset": 0,
        "slot": "7",
        "type": "t_mapping(t_uint256,t_array(t_userDefinedValueType(euint32)39925)dyn_storage)"
      },
      {
        "astId": 39139,
        "contract": "contracts/PrivacyVoteHub.sol:AuroraVoteHub",
        "label": "_published",
        "offset": 0,
        "slot": "8",
        "type": "t_mapping(t_uint256,t_struct(PublishInfo)39072_storage)"
      }
    ],
    "types": {
      "t_address": {
        "encoding": "inplace",
        "label": "address",
        "numberOfBytes": "20"
      },
      "t_array(t_string_storage)dyn_storage": {
        "base": "t_string_storage",
        "encoding": "dynamic_array",
        "label": "string[]",
        "numberOfBytes": "32"
      },
      "t_array(t_uint256)dyn_storage": {
        "base": "t_uint256",
        "encoding": "dynamic_array",
        "label": "uint256[]",
        "numberOfBytes": "32"
      },
      "t_array(t_uint32)dyn_storage": {
        "base": "t_uint32",
        "encoding": "dynamic_array",
        "label": "uint32[]",
        "numberOfBytes": "32"
      },
      "t_array(t_userDefinedValueType(euint32)39925)dyn_storage": {
        "base": "t_userDefinedValueType(euint32)39925",
        "encoding": "dynamic_array",
        "label": "euint32[]",
        "numberOfBytes": "32"
      },
      "t_bool": {
        "encoding": "inplace",
        "label": "bool",
        "numberOfBytes": "1"
      },
      "t_mapping(t_address,t_uint32)": {
        "encoding": "mapping",
        "key": "t_address",
        "label": "mapping(address => uint32)",
        "numberOfBytes": "32",
        "value": "t_uint32"
      },
      "t_mapping(t_uint256,t_array(t_uint256)dyn_storage)": {
        "encoding": "mapping",
        "key": "t_uint256",
        "label": "mapping(uint256 => uint256[])",
        "numberOfBytes": "32",
        "value": "t_array(t_uint256)dyn_storage"
      },
      "t_mapping(t_uint256,t_array(t_userDefinedValueType(euint32)39925)dyn_storage)": {
        "encoding": "mapping",
        "key": "t_uint256",
        "label": "mapping(uint256 => euint32[])",
        "numberOfBytes": "32",
        "value": "t_array(t_userDefinedValueType(euint32)39925)dyn_storage"
      },
      "t_mapping(t_uint256,t_mapping(t_address,t_uint32))": {
        "encoding": "mapping",
        "key": "t_uint256",
        "label": "mapping(uint256 => mapping(address => uint32))",
        "numberOfBytes": "32",
        "value": "t_mapping(t_address,t_uint32)"
      },
      "t_mapping(t_uint256,t_struct(CipherBallot)39062_storage)": {
        "encoding": "mapping",
        "key": "t_uint256",
        "label": "mapping(uint256 => struct AuroraVoteHub.CipherBallot)",
        "numberOfBytes": "32",
        "value": "t_struct(CipherBallot)39062_storage"
      },
      "t_mapping(t_uint256,t_struct(PublishInfo)39072_storage)": {
        "encoding": "mapping",
        "key": "t_uint256",
        "label": "mapping(uint256 => struct AuroraVoteHub.PublishInfo)",
        "numberOfBytes": "32",
        "value": "t_struct(PublishInfo)39072_storage"
      },
      "t_mapping(t_uint256,t_struct(Topic)39052_storage)": {
        "encoding": "mapping",
        "key": "t_uint256",
        "label": "mapping(uint256 => struct AuroraVoteHub.Topic)",
        "numberOfBytes": "32",
        "value": "t_struct(Topic)39052_storage"
      },
      "t_mapping(t_uint256,t_uint32)": {
        "encoding": "mapping",
        "key": "t_uint256",
        "label": "mapping(uint256 => uint32)",
        "numberOfBytes": "32",
        "value": "t_uint32"
      },
      "t_string_storage": {
        "encoding": "bytes",
        "label": "string",
        "numberOfBytes": "32"
      },
      "t_struct(CipherBallot)39062_storage": {
        "encoding": "inplace",
        "label": "struct AuroraVoteHub.CipherBallot",
        "members": [
          {
            "astId": 39054,
            "contract": "contracts/PrivacyVoteHub.sol:AuroraVoteHub",
            "label": "id",
            "offset": 0,
            "slot": "0",
            "type": "t_uint256"
          },
          {
            "astId": 39056,
            "contract": "contracts/PrivacyVoteHub.sol:AuroraVoteHub",
            "label": "topicId",
            "offset": 0,
            "slot": "1",
            "type": "t_uint256"
          },
          {
            "astId": 39059,
            "contract": "contracts/PrivacyVoteHub.sol:AuroraVoteHub",
            "label": "choice",
            "offset": 0,
            "slot": "2",
            "type": "t_userDefinedValueType(euint32)39925"
          },
          {
            "astId": 39061,
            "contract": "contracts/PrivacyVoteHub.sol:AuroraVoteHub",
            "label": "voter",
            "offset": 0,
            "slot": "3",
            "type": "t_address"
          }
        ],
        "numberOfBytes": "128"
      },
      "t_struct(PublishInfo)39072_storage": {
        "encoding": "inplace",
        "label": "struct AuroraVoteHub.PublishInfo",
        "members": [
          {
            "astId": 39064,
            "contract": "contracts/PrivacyVoteHub.sol:AuroraVoteHub",
            "label": "topicId",
            "offset": 0,
            "slot": "0",
            "type": "t_uint256"
          },
          {
            "astId": 39067,
            "contract": "contracts/PrivacyVoteHub.sol:AuroraVoteHub",
            "label": "counts",
            "offset": 0,
            "slot": "1",
            "type": "t_array(t_uint32)dyn_storage"
          },
          {
            "astId": 39069,
            "contract": "contracts/PrivacyVoteHub.sol:AuroraVoteHub",
            "label": "proof",
            "offset": 0,
            "slot": "2",
            "type": "t_string_storage"
          },
          {
            "astId": 39071,
            "contract": "contracts/PrivacyVoteHub.sol:AuroraVoteHub",
            "label": "ts",
            "offset": 0,
            "slot": "3",
            "type": "t_uint64"
          }
        ],
        "numberOfBytes": "128"
      },
      "t_struct(Topic)39052_storage": {
        "encoding": "inplace",
        "label": "struct AuroraVoteHub.Topic",
        "members": [
          {
            "astId": 39038,
            "contract": "contracts/PrivacyVoteHub.sol:AuroraVoteHub",
            "label": "name",
            "offset": 0,
            "slot": "0",
            "type": "t_string_storage"
          },
          {
            "astId": 39040,
            "contract": "contracts/PrivacyVoteHub.sol:AuroraVoteHub",
            "label": "details",
            "offset": 0,
            "slot": "1",
            "type": "t_string_storage"
          },
          {
            "astId": 39043,
            "contract": "contracts/PrivacyVoteHub.sol:AuroraVoteHub",
            "label": "options",
            "offset": 0,
            "slot": "2",
            "type": "t_array(t_string_storage)dyn_storage"
          },
          {
            "astId": 39045,
            "contract": "contracts/PrivacyVoteHub.sol:AuroraVoteHub",
            "label": "openAt",
            "offset": 0,
            "slot": "3",
            "type": "t_uint64"
          },
          {
            "astId": 39047,
            "contract": "contracts/PrivacyVoteHub.sol:AuroraVoteHub",
            "label": "closeAt",
            "offset": 8,
            "slot": "3",
            "type": "t_uint64"
          },
          {
            "astId": 39049,
            "contract": "contracts/PrivacyVoteHub.sol:AuroraVoteHub",
            "label": "owner",
            "offset": 0,
            "slot": "4",
            "type": "t_address"
          },
          {
            "astId": 39051,
            "contract": "contracts/PrivacyVoteHub.sol:AuroraVoteHub",
            "label": "published",
            "offset": 20,
            "slot": "4",
            "type": "t_bool"
          }
        ],
        "numberOfBytes": "160"
      },
      "t_uint256": {
        "encoding": "inplace",
        "label": "uint256",
        "numberOfBytes": "32"
      },
      "t_uint32": {
        "encoding": "inplace",
        "label": "uint32",
        "numberOfBytes": "4"
      },
      "t_uint64": {
        "encoding": "inplace",
        "label": "uint64",
        "numberOfBytes": "8"
      },
      "t_userDefinedValueType(euint32)39925": {
        "encoding": "inplace",
        "label": "euint32",
        "numberOfBytes": "32"
      }
    }
  }
}