{
  "address": "0xe7f1725E7734CE288F8367e1Bb143E90bb3F0512",
  "abi": [
    {
      "anonymous": false,
      "inputs": [
        {
          "indexed": true,
          "internalType": "uint256",
          "name": "topicId",
          "type": "uint256"
        },
        {
          "indexed": false,
          "internalType": "uint32[]",
          "name": "counts",
          "type": "uint32[]"
        },
        {
          "indexed": false,
          "internalType": "string",
          "name": "proof",
          "type": "string"
        }
      ],
      "name": "AggregationPublished",
      "type": "event"
    },
    {
      "anonymous": false,
      "inputs": [
        {
          "indexed": true,
          "internalType": "uint256",
          "name": "topicId",
          "type": "uint256"
        },
        {
          "indexed": true,
          "internalType": "address",
          "name": "voter",
          "type": "address"
        }
      ],
      "name": "EncryptedSubmitted",
      "type": "event"
    },
    {
      "anonymous": false,
      "inputs": [
        {
          "indexed": true,
          "internalType": "uint256",
          "name": "topicId",
          "type": "uint256"
        },
        {
          "indexed": true,
          "internalType": "address",
          "name": "owner",
          "type": "address"
        },
        {
          "indexed": false,
          "internalType": "string",
          "name": "name",
          "type": "string"
        },
        {
          "indexed": false,
          "internalType": "uint64",
          "name": "openAt",
          "type": "uint64"
        },
        {
          "indexed": false,
          "internalType": "uint64",
          "name": "closeAt",
          "type": "uint64"
        }
      ],
      "name": "TopicOpened",
      "type": "event"
    },
    {
      "inputs": [
        {
          "internalType": "string",
          "name": "name",
          "type": "string"
        },
        {
          "internalType": "string",
          "name": "details",
          "type": "string"
        },
        {
          "internalType": "string[]",
          "name": "options",
          "type": "string[]"
        },
        {
          "internalType": "uint64",
          "name": "openAt",
          "type": "uint64"
        },
        {
          "internalType": "uint64",
          "name": "closeAt",
          "type": "uint64"
        },
        {
          "internalType": "uint32",
          "name": "maxPer",
          "type": "uint32"
        }
      ],
      "name": "createTopic",
      "outputs": [
        {
          "internalType": "uint256",
          "name": "topicId",
          "type": "uint256"
        }
      ],
      "stateMutability": "nonpayable",
      "type": "function"
    },
    {
      "inputs": [
        {
          "internalType": "uint256",
          "name": "topicId",
          "type": "uint256"
        }
      ],
      "name": "getAggregation",
      "outputs": [
        {
          "components": [
            {
              "internalType": "uint256",
              "name": "topicId",
              "type": "uint256"
            },
            {
              "internalType": "uint32[]",
              "name": "counts",
              "type": "uint32[]"
            },
            {
              "internalType": "string",
              "name": "proof",
              "type": "string"
            },
            {
              "internalType": "uint64",
              "name": "ts",
              "type": "uint64"
            }
          ],
          "internalType": "struct PrivacyVoteHub.PublishInfo",
          "name": "",
          "type": "tuple"
        }
      ],
      "stateMutability": "view",
      "type": "function"
    },
    {
      "inputs": [
        {
          "internalType": "uint256",
          "name": "topicId",
          "type": "uint256"
        }
      ],
      "name": "getEncryptedAggregate",
      "outputs": [
        {
          "internalType": "euint32[]",
          "name": "",
          "type": "bytes32[]"
        }
      ],
      "stateMutability": "view",
      "type": "function"
    },
    {
      "inputs": [
        {
          "internalType": "uint256",
          "name": "topicId",
          "type": "uint256"
        }
      ],
      "name": "getTopic",
      "outputs": [
        {
          "internalType": "string",
          "name": "name",
          "type": "string"
        },
        {
          "internalType": "string",
          "name": "details",
          "type": "string"
        },
        {
          "internalType": "string[]",
          "name": "options",
          "type": "string[]"
        },
        {
          "internalType": "uint64",
          "name": "openAt",
          "type": "uint64"
        },
        {
          "internalType": "uint64",
          "name": "closeAt",
          "type": "uint64"
        },
        {
          "internalType": "bool",
          "name": "published",
          "type": "bool"
        },
        {
          "internalType": "address",
          "name": "owner",
          "type": "address"
        }
      ],
      "stateMutability": "view",
      "type": "function"
    },
    {
      "inputs": [],
      "name": "getTopicCount",
      "outputs": [
        {
          "internalType": "uint256",
          "name": "",
          "type": "uint256"
        }
      ],
      "stateMutability": "view",
      "type": "function"
    },
    {
      "inputs": [
        {
          "internalType": "uint256",
          "name": "topicId",
          "type": "uint256"
        }
      ],
      "name": "getTopicStatus",
      "outputs": [
        {
          "internalType": "uint8",
          "name": "",
          "type": "uint8"
        }
      ],
      "stateMutability": "view",
      "type": "function"
    },
    {
      "inputs": [
        {
          "internalType": "uint256",
          "name": "topicId",
          "type": "uint256"
        }
      ],
      "name": "maxVotesPerAddress",
      "outputs": [
        {
          "internalType": "uint32",
          "name": "",
          "type": "uint32"
        }
      ],
      "stateMutability": "view",
      "type": "function"
    },
    {
      "inputs": [],
      "name": "protocolId",
      "outputs": [
        {
          "internalType": "uint256",
          "name": "",
          "type": "uint256"
        }
      ],
      "stateMutability": "pure",
      "type": "function"
    },
    {
      "inputs": [
        {
          "internalType": "uint256",
          "name": "topicId",
          "type": "uint256"
        },
        {
          "internalType": "uint32[]",
          "name": "counts",
          "type": "uint32[]"
        },
        {
          "internalType": "string",
          "name": "proof",
          "type": "string"
        }
      ],
      "name": "publishAggregation",
      "outputs": [],
      "stateMutability": "nonpayable",
      "type": "function"
    },
    {
      "inputs": [
        {
          "internalType": "uint256",
          "name": "topicId",
          "type": "uint256"
        },
        {
          "internalType": "externalEuint32",
          "name": "input",
          "type": "bytes32"
        },
        {
          "internalType": "bytes",
          "name": "proof",
          "type": "bytes"
        }
      ],
      "name": "submitCipherIndex",
      "outputs": [],
      "stateMutability": "nonpayable",
      "type": "function"
    },
    {
      "inputs": [
        {
          "internalType": "uint256",
          "name": "topicId",
          "type": "uint256"
        },
        {
          "internalType": "externalEuint32[]",
          "name": "onehot",
          "type": "bytes32[]"
        },
        {
          "internalType": "bytes",
          "name": "proof",
          "type": "bytes"
        }
      ],
      "name": "submitCipherOneHot",
      "outputs": [],
      "stateMutability": "nonpayable",
      "type": "function"
    },
    {
      "inputs": [
        {
          "internalType": "address",
          "name": "user",
          "type": "address"
        },
        {
          "internalType": "uint256",
          "name": "topicId",
          "type": "uint256"
        }
      ],
      "name": "usedVotesBy",
      "outputs": [
        {
          "internalType": "uint32",
          "name": "",
          "type": "uint32"
        }
      ],
      "stateMutability": "view",
      "type": "function"
    }
  ],
  "transactionHash": "0xad03925a8d8d92a471e5a34a366e1cd9ce4d48eadce8a06d6bc644445adbcc0e",
  "args": [],
  "numDeployments": 1,
  "solcInputHash": "cfc9be13d0799cb5e31346fbe3848e84",
  "bytecode": "0x608060405234801561000f575f5ffd5b5061018a6100ae604080516080810182525f80825260208201819052918101829052606081019190915250604080516080810182527350157cffd6bbfa2dece204a89ec419c23ef5755d815273cd3ab3bd6bcc0c0bf3e27912a92043e817b1cf69602082015273a02cda4ca3a71d7c46997716f4283aa851c2881291810191909152731364cbbf2cdf5032c47d8226a6f6fbd2afcdacac606082015290565b80517f9e7b61f58c47dc699ac88507c4f5bb9f121c03808c5676a8078fe583e464970080546001600160a01b03199081166001600160a01b039384161790915560208301517f9e7b61f58c47dc699ac88507c4f5bb9f121c03808c5676a8078fe583e46497018054831691841691909117905560408301517f9e7b61f58c47dc699ac88507c4f5bb9f121c03808c5676a8078fe583e46497028054831691841691909117905560608301517f9e7b61f58c47dc699ac88507c4f5bb9f121c03808c5676a8078fe583e46497038054909216921691909117905550565b61226f806101975f395ff3fe608060405234801561000f575f5ffd5b50600436106100cf575f3560e01c80639af4a5501161007d578063da1f12ab11610058578063da1f12ab146101e0578063e03b828e146101e8578063e77add9e14610208575f5ffd5b80639af4a55014610197578063cc89698c146101bc578063d20c39cb146101cd575f5ffd5b806371658896116100ad57806371658896146101395780638d9d2f401461015f5780639aa3c96614610172575f5ffd5b8063110498b2146100d357806325296266146100fc5780636aeeba4b14610124575b5f5ffd5b6100e66100e13660046119d9565b61021b565b6040516100f39190611a1e565b60405180910390f35b61010f61010a366004611aba565b6103fa565b60405163ffffffff90911681526020016100f3565b610137610132366004611b75565b610429565b005b61014c6101473660046119d9565b6106e4565b6040516100f39796959493929190611bee565b61013761016d366004611b75565b61099c565b61010f6101803660046119d9565b5f9081526006602052604090205463ffffffff1690565b6101aa6101a53660046119d9565b610dff565b60405160ff90911681526020016100f3565b5f545b6040519081526020016100f3565b6101376101db366004611cb7565b610ed4565b6127116101bf565b6101fb6101f63660046119d9565b61117f565b6040516100f39190611d06565b6101bf610216366004611e28565b611286565b61024e60405180608001604052805f815260200160608152602001606081526020015f67ffffffffffffffff1681525090565b5f828152600260205260409020805483919061026990611f7a565b90505f036102ae5760405162461bcd60e51b815260206004820152600d60248201526c746f706963206d697373696e6760981b60448201526064015b60405180910390fd5b5f838152600860209081526040918290208251608081018452815481526001820180548551818602810186019096528086529194929385810193929083018282801561034257602002820191905f5260205f20905f905b82829054906101000a900463ffffffff1663ffffffff16815260200190600401906020826003010492830192600103820291508084116103055790505b5050505050815260200160028201805461035b90611f7a565b80601f016020809104026020016040519081016040528092919081815260200182805461038790611f7a565b80156103d25780601f106103a9576101008083540402835291602001916103d2565b820191905f5260205f20905b8154815290600101906020018083116103b557829003601f168201915b50505091835250506003919091015467ffffffffffffffff1660209091015291505b50919050565b5f8181526005602090815260408083206001600160a01b038616845290915290205463ffffffff165b92915050565b5f858152600260205260409020805486919061044490611f7a565b90505f036104845760405162461bcd60e51b815260206004820152600d60248201526c746f706963206d697373696e6760981b60448201526064016102a5565b5f8681526002602052604090206003810154600160401b900467ffffffffffffffff1642116104f55760405162461bcd60e51b815260206004820152600a60248201527f6e6f7420636c6f7365640000000000000000000000000000000000000000000060448201526064016102a5565b6004810154600160a01b900460ff16156105515760405162461bcd60e51b815260206004820152600960248201527f7075626c6973686564000000000000000000000000000000000000000000000060448201526064016102a5565b6002810154851461058a5760405162461bcd60e51b81526020600482015260036024820152623632b760e91b60448201526064016102a5565b60405180608001604052808881526020018787808060200260200160405190810160405280939291908181526020018383602002808284375f92019190915250505090825250604080516020601f8801819004810282018101909252868152918101919087908790819084018382808284375f92018290525093855250505067ffffffffffffffff4216602092830152898152600882526040902082518155828201518051919261064392600185019290910190611877565b50604082015160028201906106589082611ff8565b50606091909101516003909101805467ffffffffffffffff90921667ffffffffffffffff1990921691909117905560048101805460ff60a01b1916600160a01b17905560405187907f80ea002e283f50b57357cde7349202c2b40f23cbdc0148cda9278b73e1758f4d906106d39089908990899089906120b3565b60405180910390a250505050505050565b60608060605f5f5f5f8760025f8281526020019081526020015f205f01805461070c90611f7a565b90505f0361074c5760405162461bcd60e51b815260206004820152600d60248201526c746f706963206d697373696e6760981b60448201526064016102a5565b5f8981526002602081905260409091206003810154600482015482549293849360018501939185019267ffffffffffffffff80841693600160401b9004169160ff600160a01b830416916001600160a01b03169087906107ab90611f7a565b80601f01602080910402602001604051908101604052809291908181526020018280546107d790611f7a565b80156108225780601f106107f957610100808354040283529160200191610822565b820191905f5260205f20905b81548152906001019060200180831161080557829003601f168201915b5050505050965085805461083590611f7a565b80601f016020809104026020016040519081016040528092919081815260200182805461086190611f7a565b80156108ac5780601f10610883576101008083540402835291602001916108ac565b820191905f5260205f20905b81548152906001019060200180831161088f57829003601f168201915b5050505050955084805480602002602001604051908101604052809291908181526020015f905b8282101561097b578382905f5260205f200180546108f090611f7a565b80601f016020809104026020016040519081016040528092919081815260200182805461091c90611f7a565b80156109675780601f1061093e57610100808354040283529160200191610967565b820191905f5260205f20905b81548152906001019060200180831161094a57829003601f168201915b5050505050815260200190600101906108d3565b50505050945098509850985098509850985098505050919395979092949650565b5f85815260026020526040902080548691906109b790611f7a565b90505f036109f75760405162461bcd60e51b815260206004820152600d60248201526c746f706963206d697373696e6760981b60448201526064016102a5565b5f868152600260205260409020600381015467ffffffffffffffff164210801590610a3757506003810154600160401b900467ffffffffffffffff164211155b610a6c5760405162461bcd60e51b815260206004820152600660248201526577696e646f7760d01b60448201526064016102a5565b60028101548514610aa55760405162461bcd60e51b81526020600482015260036024820152623632b760e91b60448201526064016102a5565b5f8781526005602090815260408083203384528252808320548a845260069092529091205463ffffffff91821691168110610b0a5760405162461bcd60e51b815260206004820152600560248201526471756f746160d81b60448201526064016102a5565b610b15816001612139565b5f8981526005602090815260408083203384529091528120805463ffffffff191663ffffffff93909316929092179091558667ffffffffffffffff811115610b5f57610b5f611d48565b604051908082528060200260200182016040528015610b88578160200160208202803683370190505b5090505f5b87811015610c1157610bec898983818110610baa57610baa612155565b9050602002013588888080601f0160208091040260200160405190810160405280939291908181526020018383808284375f920191909152506114bc92505050565b828281518110610bfe57610bfe612155565b6020908102919091010152600101610b8d565b505f8981526007602052604081208054909103610c76575f5b8251811015610c705781838281518110610c4657610c46612155565b6020908102919091018101518254600181810185555f948552929093209092019190915501610c2a565b50610d36565b8151815414610cc75760405162461bcd60e51b815260206004820152600760248201527f6167672d6c656e0000000000000000000000000000000000000000000000000060448201526064016102a5565b5f5b8251811015610d3457610d0f828281548110610ce757610ce7612155565b905f5260205f200154848381518110610d0257610d02612155565b60200260200101516114d0565b828281548110610d2157610d21612155565b5f91825260209091200155600101610cc9565b505b5f5b8251811015610dc657610d64828281548110610d5657610d56612155565b905f5260205f2001546114fe565b50610d98828281548110610d7a57610d7a612155565b5f9182526020909120015460048701546001600160a01b031661150d565b50610dbd828281548110610dae57610dae612155565b905f5260205f2001543361150d565b50600101610d38565b5060405133908b907f1f82d175b08a05ebe135360e692022d3d6f03c69aedbe5e026d639d89c6752b1905f90a350505050505050505050565b5f8181526002602052604081208054839190610e1a90611f7a565b90505f03610e5a5760405162461bcd60e51b815260206004820152600d60248201526c746f706963206d697373696e6760981b60448201526064016102a5565b5f8381526002602052604090206004810154600160a01b900460ff1615610e855760039250506103f4565b600381015467ffffffffffffffff16421015610ea4575f9250506103f4565b6003810154600160401b900467ffffffffffffffff164211610eca5760019250506103f4565b5060029392505050565b5f8481526002602052604090208054859190610eef90611f7a565b90505f03610f2f5760405162461bcd60e51b815260206004820152600d60248201526c746f706963206d697373696e6760981b60448201526064016102a5565b5f858152600260205260409020600381015467ffffffffffffffff164210801590610f6f57506003810154600160401b900467ffffffffffffffff164211155b610fa45760405162461bcd60e51b815260206004820152600660248201526577696e646f7760d01b60448201526064016102a5565b5f86815260056020908152604080832033845282528083205489845260069092529091205463ffffffff918216911681106110095760405162461bcd60e51b815260206004820152600560248201526471756f746160d81b60448201526064016102a5565b611014816001612139565b5f8881526005602090815260408083203384528252808320805463ffffffff191663ffffffff95909516949094179093558251601f880182900482028101820190935286835290916110829189919089908990819084018382808284375f920191909152506114bc92505050565b905061108d816114fe565b50611098813361150d565b506001805f8282546110aa9190612169565b9091555050600180546040805160808101825282815260208082018d815282840187815233606085018181525f88815260048652878120965187559351868a0155915160028601559051600394850180547fffffffffffffffffffffffff0000000000000000000000000000000000000000166001600160a01b039092169190911790558e82529282528381208054968701815581529081209094018390559051919290918b917f1f82d175b08a05ebe135360e692022d3d6f03c69aedbe5e026d639d89c6752b191a3505050505050505050565b5f8181526002602052604090208054606091839161119c90611f7a565b90505f036111dc5760405162461bcd60e51b815260206004820152600d60248201526c746f706963206d697373696e6760981b60448201526064016102a5565b5f838152600760205260408120805490919067ffffffffffffffff81111561120657611206611d48565b60405190808252806020026020018201604052801561122f578160200160208202803683370190505b5090505f5b825481101561127d5782818154811061124f5761124f612155565b905f5260205f20015482828151811061126a5761126a612155565b6020908102919091010152600101611234565b50949350505050565b5f5f8751116112c05760405162461bcd60e51b81526004016102a5906020808252600490820152636e616d6560e01b604082015260600190565b6002855110156113125760405162461bcd60e51b815260206004820152600760248201527f6f7074696f6e730000000000000000000000000000000000000000000000000060448201526064016102a5565b8367ffffffffffffffff168367ffffffffffffffff1611801561133e5750428367ffffffffffffffff16115b6113735760405162461bcd60e51b81526004016102a59060208082526004908201526374696d6560e01b604082015260600190565b60015f5f8282546113849190612169565b90915550505f805480825260026020526040909120909150806113a78982611ff8565b50600181016113b68882611ff8565b5085516113cc906002830190602089019061191f565b5060038101805467ffffffffffffffff868116600160401b026fffffffffffffffffffffffffffffffff199092169088161717905560048101805460ff60a01b1933167fffffffffffffffffffffff00000000000000000000000000000000000000000090911617905563ffffffff831615611448578261144b565b60015b5f8381526006602052604090819020805463ffffffff191663ffffffff939093169290921790915551339083907fc398c5ea829c7e6572184836c9422f3187cc683e9f2035c37497e13ca7127997906114a9908c908a908a9061217c565b60405180910390a3509695505050505050565b5f6114c98383600461151f565b9392505050565b5f826114e2576114df5f61163f565b92505b816114f3576114f05f61163f565b91505b6114c983835f611651565b5f6115098230611731565b5090565b5f6115188383611731565b5090919050565b7f9e7b61f58c47dc699ac88507c4f5bb9f121c03808c5676a8078fe583e46497015460405163196d0b9b60e01b81525f917f9e7b61f58c47dc699ac88507c4f5bb9f121c03808c5676a8078fe583e4649700916001600160a01b039091169063196d0b9b906115989088903390899089906004016121cf565b6020604051808303815f875af11580156115b4573d5f5f3e3d5ffd5b505050506040513d601f19601f820116820180604052508101906115d8919061220e565b8154604051630f8e573b60e21b8152600481018390523360248201529193506001600160a01b031690633e395cec906044015f604051808303815f87803b158015611621575f5ffd5b505af1158015611633573d5f5f3e3d5ffd5b50505050509392505050565b5f6104238263ffffffff1660046117ba565b5f5f82156116645750600160f81b611667565b505f5b5f7f9e7b61f58c47dc699ac88507c4f5bb9f121c03808c5676a8078fe583e4649700600181015460405163022f65e760e31b815260048101899052602481018890527fff00000000000000000000000000000000000000000000000000000000000000851660448201529192506001600160a01b03169063117b2f38906064016020604051808303815f875af1158015611703573d5f5f3e3d5ffd5b505050506040513d601f19601f82011682018060405250810190611727919061220e565b9695505050505050565b5f7f9e7b61f58c47dc699ac88507c4f5bb9f121c03808c5676a8078fe583e46497008054604051635ca4b5b160e11b8152600481018690526001600160a01b03858116602483015292935091169063b9496b62906044015f604051808303815f87803b15801561179f575f5ffd5b505af11580156117b1573d5f5f3e3d5ffd5b50505050505050565b7f9e7b61f58c47dc699ac88507c4f5bb9f121c03808c5676a8078fe583e464970154604051639cd07acb60e01b81525f917f9e7b61f58c47dc699ac88507c4f5bb9f121c03808c5676a8078fe583e4649700916001600160a01b0390911690639cd07acb9061182f9087908790600401612225565b6020604051808303815f875af115801561184b573d5f5f3e3d5ffd5b505050506040513d601f19601f8201168201806040525081019061186f919061220e565b949350505050565b828054828255905f5260205f2090600701600890048101928215611913579160200282015f5b838211156118e157835183826101000a81548163ffffffff021916908363ffffffff160217905550926020019260040160208160030104928301926001030261189d565b80156119115782816101000a81549063ffffffff02191690556004016020816003010492830192600103026118e1565b505b5061150992915061196f565b828054828255905f5260205f20908101928215611963579160200282015b8281111561196357825182906119539082611ff8565b509160200191906001019061193d565b50611509929150611983565b5b80821115611509575f8155600101611970565b80821115611509575f611996828261199f565b50600101611983565b5080546119ab90611f7a565b5f825580601f106119ba575050565b601f0160209004905f5260205f20908101906119d6919061196f565b50565b5f602082840312156119e9575f5ffd5b5035919050565b5f81518084528060208401602086015e5f602082860101526020601f19601f83011685010191505092915050565b60208082528251828201528281015160806040840152805160a084018190525f929190910190829060c08501905b80831015611a755763ffffffff8451168252602082019150602084019350600183019250611a4c565b506040860151858203601f190160608701529250611a9381846119f0565b925050506060840151611ab2608085018267ffffffffffffffff169052565b509392505050565b5f5f60408385031215611acb575f5ffd5b82356001600160a01b0381168114611ae1575f5ffd5b946020939093013593505050565b5f5f83601f840112611aff575f5ffd5b50813567ffffffffffffffff811115611b16575f5ffd5b6020830191508360208260051b8501011115611b30575f5ffd5b9250929050565b5f5f83601f840112611b47575f5ffd5b50813567ffffffffffffffff811115611b5e575f5ffd5b602083019150836020828501011115611b30575f5ffd5b5f5f5f5f5f60608688031215611b89575f5ffd5b85359450602086013567ffffffffffffffff811115611ba6575f5ffd5b611bb288828901611aef565b909550935050604086013567ffffffffffffffff811115611bd1575f5ffd5b611bdd88828901611b37565b969995985093965092949392505050565b60e081525f611c0060e083018a6119f0565b8281036020840152611c12818a6119f0565b9050828103604084015280885180835260208301915060208160051b84010160208b015f5b83811015611c6957601f19868403018552611c538383516119f0565b6020958601959093509190910190600101611c37565b505067ffffffffffffffff8a1660608701529350611c8692505050565b67ffffffffffffffff94909416608082015291151560a08301526001600160a01b031660c090910152949350505050565b5f5f5f5f60608587031215611cca575f5ffd5b8435935060208501359250604085013567ffffffffffffffff811115611cee575f5ffd5b611cfa87828801611b37565b95989497509550505050565b602080825282518282018190525f918401906040840190835b81811015611d3d578351835260209384019390920191600101611d1f565b509095945050505050565b634e487b7160e01b5f52604160045260245ffd5b604051601f8201601f1916810167ffffffffffffffff81118282101715611d8557611d85611d48565b604052919050565b5f82601f830112611d9c575f5ffd5b813567ffffffffffffffff811115611db657611db6611d48565b611dc9601f8201601f1916602001611d5c565b818152846020838601011115611ddd575f5ffd5b816020850160208301375f918101602001919091529392505050565b803567ffffffffffffffff81168114611e10575f5ffd5b919050565b803563ffffffff81168114611e10575f5ffd5b5f5f5f5f5f5f60c08789031215611e3d575f5ffd5b863567ffffffffffffffff811115611e53575f5ffd5b611e5f89828a01611d8d565b965050602087013567ffffffffffffffff811115611e7b575f5ffd5b611e8789828a01611d8d565b955050604087013567ffffffffffffffff811115611ea3575f5ffd5b8701601f81018913611eb3575f5ffd5b803567ffffffffffffffff811115611ecd57611ecd611d48565b8060051b611edd60208201611d5c565b9182526020818401810192908101908c841115611ef8575f5ffd5b6020850192505b83831015611f3e57823567ffffffffffffffff811115611f1d575f5ffd5b611f2c8e602083890101611d8d565b83525060209283019290910190611eff565b8098505050505050611f5260608801611df9565b9250611f6060808801611df9565b9150611f6e60a08801611e15565b90509295509295509295565b600181811c90821680611f8e57607f821691505b6020821081036103f457634e487b7160e01b5f52602260045260245ffd5b601f821115611ff357805f5260205f20601f840160051c81016020851015611fd15750805b601f840160051c820191505b81811015611ff0575f8155600101611fdd565b50505b505050565b815167ffffffffffffffff81111561201257612012611d48565b612026816120208454611f7a565b84611fac565b6020601f821160018114612058575f83156120415750848201515b5f19600385901b1c1916600184901b178455611ff0565b5f84815260208120601f198516915b828110156120875787850151825560209485019460019092019101612067565b50848210156120a457868401515f19600387901b60f8161c191681555b50505050600190811b01905550565b604080825281018490525f8560608301825b878110156120f05763ffffffff6120db84611e15565b168252602092830192909101906001016120c5565b508381036020850152848152848660208301375f602086830101526020601f19601f8701168201019250505095945050505050565b634e487b7160e01b5f52601160045260245ffd5b63ffffffff818116838216019081111561042357610423612125565b634e487b7160e01b5f52603260045260245ffd5b8082018082111561042357610423612125565b606081525f61218e60608301866119f0565b67ffffffffffffffff94851660208401529290931660409091015292915050565b605481106121cb57634e487b7160e01b5f52602160045260245ffd5b9052565b8481526001600160a01b0384166020820152608060408201525f6121f660808301856119f0565b905061220560608301846121af565b95945050505050565b5f6020828403121561221e575f5ffd5b5051919050565b828152604081016114c960208301846121af56fea26469706673582212209420ed14abefe0fd1830a32b4f98c328a941f2b3115e5721280ff8c72261bb1d64736f6c634300081b0033",
  "devdoc": {
    "kind": "dev",
    "methods": {},
    "title": "PrivacyVoteHub  FHEVM  SecretBallotBox ",
    "version": 1
  },
  "userdoc": {
    "kind": "user",
    "methods": {},
    "version": 1
  },
  "storageLayout": {
    "storage": [
      {
        "astId": 39101,
        "contract": "contracts/PrivacyVoteHub.sol:PrivacyVoteHub",
        "label": "_topicSeq",
        "offset": 0,
        "slot": "0",
        "type": "t_uint256"
      },
      {
        "astId": 39103,
        "contract": "contracts/PrivacyVoteHub.sol:PrivacyVoteHub",
        "label": "_ballotSeq",
        "offset": 0,
        "slot": "1",
        "type": "t_uint256"
      },
      {
        "astId": 39108,
        "contract": "contracts/PrivacyVoteHub.sol:PrivacyVoteHub",
        "label": "_topics",
        "offset": 0,
        "slot": "2",
        "type": "t_mapping(t_uint256,t_struct(Topic)39052_storage)"
      },
      {
        "astId": 39113,
        "contract": "contracts/PrivacyVoteHub.sol:PrivacyVoteHub",
        "label": "_topicBallots",
        "offset": 0,
        "slot": "3",
        "type": "t_mapping(t_uint256,t_array(t_uint256)dyn_storage)"
      },
      {
        "astId": 39118,
        "contract": "contracts/PrivacyVoteHub.sol:PrivacyVoteHub",
        "label": "_ballots",
        "offset": 0,
        "slot": "4",
        "type": "t_mapping(t_uint256,t_struct(CipherBallot)39062_storage)"
      },
      {
        "astId": 39124,
        "contract": "contracts/PrivacyVoteHub.sol:PrivacyVoteHub",
        "label": "_votedCount",
        "offset": 0,
        "slot": "5",
        "type": "t_mapping(t_uint256,t_mapping(t_address,t_uint32))"
      },
      {
        "astId": 39128,
        "contract": "contracts/PrivacyVoteHub.sol:PrivacyVoteHub",
        "label": "_maxPerAddress",
        "offset": 0,
        "slot": "6",
        "type": "t_mapping(t_uint256,t_uint32)"
      },
      {
        "astId": 39134,
        "contract": "contracts/PrivacyVoteHub.sol:PrivacyVoteHub",
        "label": "_encryptedAggregates",
        "offset": 0,
        "slot": "7",
        "type": "t_mapping(t_uint256,t_array(t_userDefinedValueType(euint32)39925)dyn_storage)"
      },
      {
        "astId": 39139,
        "contract": "contracts/PrivacyVoteHub.sol:PrivacyVoteHub",
        "label": "_published",
        "offset": 0,
        "slot": "8",
        "type": "t_mapping(t_uint256,t_struct(PublishInfo)39072_storage)"
      }
    ],
    "types": {
      "t_address": {
        "encoding": "inplace",
        "label": "address",
        "numberOfBytes": "20"
      },
      "t_array(t_string_storage)dyn_storage": {
        "base": "t_string_storage",
        "encoding": "dynamic_array",
        "label": "string[]",
        "numberOfBytes": "32"
      },
      "t_array(t_uint256)dyn_storage": {
        "base": "t_uint256",
        "encoding": "dynamic_array",
        "label": "uint256[]",
        "numberOfBytes": "32"
      },
      "t_array(t_uint32)dyn_storage": {
        "base": "t_uint32",
        "encoding": "dynamic_array",
        "label": "uint32[]",
        "numberOfBytes": "32"
      },
      "t_array(t_userDefinedValueType(euint32)39925)dyn_storage": {
        "base": "t_userDefinedValueType(euint32)39925",
        "encoding": "dynamic_array",
        "label": "euint32[]",
        "numberOfBytes": "32"
      },
      "t_bool": {
        "encoding": "inplace",
        "label": "bool",
        "numberOfBytes": "1"
      },
      "t_mapping(t_address,t_uint32)": {
        "encoding": "mapping",
        "key": "t_address",
        "label": "mapping(address => uint32)",
        "numberOfBytes": "32",
        "value": "t_uint32"
      },
      "t_mapping(t_uint256,t_array(t_uint256)dyn_storage)": {
        "encoding": "mapping",
        "key": "t_uint256",
        "label": "mapping(uint256 => uint256[])",
        "numberOfBytes": "32",
        "value": "t_array(t_uint256)dyn_storage"
      },
      "t_mapping(t_uint256,t_array(t_userDefinedValueType(euint32)39925)dyn_storage)": {
        "encoding": "mapping",
        "key": "t_uint256",
        "label": "mapping(uint256 => euint32[])",
        "numberOfBytes": "32",
        "value": "t_array(t_userDefinedValueType(euint32)39925)dyn_storage"
      },
      "t_mapping(t_uint256,t_mapping(t_address,t_uint32))": {
        "encoding": "mapping",
        "key": "t_uint256",
        "label": "mapping(uint256 => mapping(address => uint32))",
        "numberOfBytes": "32",
        "value": "t_mapping(t_address,t_uint32)"
      },
      "t_mapping(t_uint256,t_struct(CipherBallot)39062_storage)": {
        "encoding": "mapping",
        "key": "t_uint256",
        "label": "mapping(uint256 => struct PrivacyVoteHub.CipherBallot)",
        "numberOfBytes": "32",
        "value": "t_struct(CipherBallot)39062_storage"
      },
      "t_mapping(t_uint256,t_struct(PublishInfo)39072_storage)": {
        "encoding": "mapping",
        "key": "t_uint256",
        "label": "mapping(uint256 => struct PrivacyVoteHub.PublishInfo)",
        "numberOfBytes": "32",
        "value": "t_struct(PublishInfo)39072_storage"
      },
      "t_mapping(t_uint256,t_struct(Topic)39052_storage)": {
        "encoding": "mapping",
        "key": "t_uint256",
        "label": "mapping(uint256 => struct PrivacyVoteHub.Topic)",
        "numberOfBytes": "32",
        "value": "t_struct(Topic)39052_storage"
      },
      "t_mapping(t_uint256,t_uint32)": {
        "encoding": "mapping",
        "key": "t_uint256",
        "label": "mapping(uint256 => uint32)",
        "numberOfBytes": "32",
        "value": "t_uint32"
      },
      "t_string_storage": {
        "encoding": "bytes",
        "label": "string",
        "numberOfBytes": "32"
      },
      "t_struct(CipherBallot)39062_storage": {
        "encoding": "inplace",
        "label": "struct PrivacyVoteHub.CipherBallot",
        "members": [
          {
            "astId": 39054,
            "contract": "contracts/PrivacyVoteHub.sol:PrivacyVoteHub",
            "label": "id",
            "offset": 0,
            "slot": "0",
            "type": "t_uint256"
          },
          {
            "astId": 39056,
            "contract": "contracts/PrivacyVoteHub.sol:PrivacyVoteHub",
            "label": "topicId",
            "offset": 0,
            "slot": "1",
            "type": "t_uint256"
          },
          {
            "astId": 39059,
            "contract": "contracts/PrivacyVoteHub.sol:PrivacyVoteHub",
            "label": "choice",
            "offset": 0,
            "slot": "2",
            "type": "t_userDefinedValueType(euint32)39925"
          },
          {
            "astId": 39061,
            "contract": "contracts/PrivacyVoteHub.sol:PrivacyVoteHub",
            "label": "voter",
            "offset": 0,
            "slot": "3",
            "type": "t_address"
          }
        ],
        "numberOfBytes": "128"
      },
      "t_struct(PublishInfo)39072_storage": {
        "encoding": "inplace",
        "label": "struct PrivacyVoteHub.PublishInfo",
        "members": [
          {
            "astId": 39064,
            "contract": "contracts/PrivacyVoteHub.sol:PrivacyVoteHub",
            "label": "topicId",
            "offset": 0,
            "slot": "0",
            "type": "t_uint256"
          },
          {
            "astId": 39067,
            "contract": "contracts/PrivacyVoteHub.sol:PrivacyVoteHub",
            "label": "counts",
            "offset": 0,
            "slot": "1",
            "type": "t_array(t_uint32)dyn_storage"
          },
          {
            "astId": 39069,
            "contract": "contracts/PrivacyVoteHub.sol:PrivacyVoteHub",
            "label": "proof",
            "offset": 0,
            "slot": "2",
            "type": "t_string_storage"
          },
          {
            "astId": 39071,
            "contract": "contracts/PrivacyVoteHub.sol:PrivacyVoteHub",
            "label": "ts",
            "offset": 0,
            "slot": "3",
            "type": "t_uint64"
          }
        ],
        "numberOfBytes": "128"
      },
      "t_struct(Topic)39052_storage": {
        "encoding": "inplace",
        "label": "struct PrivacyVoteHub.Topic",
        "members": [
          {
            "astId": 39038,
            "contract": "contracts/PrivacyVoteHub.sol:PrivacyVoteHub",
            "label": "name",
            "offset": 0,
            "slot": "0",
            "type": "t_string_storage"
          },
          {
            "astId": 39040,
            "contract": "contracts/PrivacyVoteHub.sol:PrivacyVoteHub",
            "label": "details",
            "offset": 0,
            "slot": "1",
            "type": "t_string_storage"
          },
          {
            "astId": 39043,
            "contract": "contracts/PrivacyVoteHub.sol:PrivacyVoteHub",
            "label": "options",
            "offset": 0,
            "slot": "2",
            "type": "t_array(t_string_storage)dyn_storage"
          },
          {
            "astId": 39045,
            "contract": "contracts/PrivacyVoteHub.sol:PrivacyVoteHub",
            "label": "openAt",
            "offset": 0,
            "slot": "3",
            "type": "t_uint64"
          },
          {
            "astId": 39047,
            "contract": "contracts/PrivacyVoteHub.sol:PrivacyVoteHub",
            "label": "closeAt",
            "offset": 8,
            "slot": "3",
            "type": "t_uint64"
          },
          {
            "astId": 39049,
            "contract": "contracts/PrivacyVoteHub.sol:PrivacyVoteHub",
            "label": "owner",
            "offset": 0,
            "slot": "4",
            "type": "t_address"
          },
          {
            "astId": 39051,
            "contract": "contracts/PrivacyVoteHub.sol:PrivacyVoteHub",
            "label": "published",
            "offset": 20,
            "slot": "4",
            "type": "t_bool"
          }
        ],
        "numberOfBytes": "160"
      },
      "t_uint256": {
        "encoding": "inplace",
        "label": "uint256",
        "numberOfBytes": "32"
      },
      "t_uint32": {
        "encoding": "inplace",
        "label": "uint32",
        "numberOfBytes": "4"
      },
      "t_uint64": {
        "encoding": "inplace",
        "label": "uint64",
        "numberOfBytes": "8"
      },
      "t_userDefinedValueType(euint32)39925": {
        "encoding": "inplace",
        "label": "euint32",
        "numberOfBytes": "32"
      }
    }
  }
}